:100000000EC028C027C026C025C024C023C022C0DF
:1000100021C020C01FC01EC01DC01CC01BC0112499
:100020001FBECFE5D2E0DEBFCDBF10E0A0E6B0E05E
:10003000EEEEF0E002C005900D92A636B107D9F7BA
:1000400020E0A6E6B0E001C01D92A736B207E1F7B6
:1000500013D04BC0D5CFB89A83E88ABD83E083BF65
:1000600019BC089598B3957E98BB80FDC19A81FD17
:10007000C39A82FDC49A0895EEDFBA98C29A87B3F4
:100080008A6187BB80916600EDDF81E001C08C2F23
:10009000C6B3C2FBCC27C0F98130C9F7C111F7CF75
:1000A00083ED90E30197F1F700C00000B299EFCF24
:1000B000809166008F5F863018F48093660002C0DE
:1000C00010926600E0916600F0E0E05AFF4F8081F8
:1000D00089BD80916600C6DFB29BFECF83ED90E3C1
:0E00E0000197F1F700C00000D2CFF894FFCFD7
:0600EE0000336699CCFF0F
:00000001FF
